{
  "_format": "hh-sol-artifact-1",
  "contractName": "BezikNFT",
  "sourceName": "contracts/BezikNFT.sol",
  "abi": [
    {
      "inputs": [],
      "stateMutability": "payable",
      "type": "constructor"
    },
    {
      "anonymous": false,
      "inputs": [
        {
          "indexed": true,
          "internalType": "address",
          "name": "owner",
          "type": "address"
        },
        {
          "indexed": true,
          "internalType": "address",
          "name": "approved",
          "type": "address"
        },
        {
          "indexed": true,
          "internalType": "uint256",
          "name": "tokenId",
          "type": "uint256"
        }
      ],
      "name": "Approval",
      "type": "event"
    },
    {
      "anonymous": false,
      "inputs": [
        {
          "indexed": true,
          "internalType": "address",
          "name": "owner",
          "type": "address"
        },
        {
          "indexed": true,
          "internalType": "address",
          "name": "operator",
          "type": "address"
        },
        {
          "indexed": false,
          "internalType": "bool",
          "name": "approved",
          "type": "bool"
        }
      ],
      "name": "ApprovalForAll",
      "type": "event"
    },
    {
      "anonymous": false,
      "inputs": [
        {
          "indexed": true,
          "internalType": "address",
          "name": "previousOwner",
          "type": "address"
        },
        {
          "indexed": true,
          "internalType": "address",
          "name": "newOwner",
          "type": "address"
        }
      ],
      "name": "OwnershipTransferred",
      "type": "event"
    },
    {
      "anonymous": false,
      "inputs": [
        {
          "indexed": true,
          "internalType": "address",
          "name": "from",
          "type": "address"
        },
        {
          "indexed": true,
          "internalType": "address",
          "name": "to",
          "type": "address"
        },
        {
          "indexed": true,
          "internalType": "uint256",
          "name": "tokenId",
          "type": "uint256"
        }
      ],
      "name": "Transfer",
      "type": "event"
    },
    {
      "inputs": [
        {
          "internalType": "address",
          "name": "to",
          "type": "address"
        },
        {
          "internalType": "uint256",
          "name": "tokenId",
          "type": "uint256"
        }
      ],
      "name": "approve",
      "outputs": [],
      "stateMutability": "nonpayable",
      "type": "function"
    },
    {
      "inputs": [
        {
          "internalType": "address",
          "name": "owner",
          "type": "address"
        }
      ],
      "name": "balanceOf",
      "outputs": [
        {
          "internalType": "uint256",
          "name": "",
          "type": "uint256"
        }
      ],
      "stateMutability": "view",
      "type": "function"
    },
    {
      "inputs": [
        {
          "internalType": "uint256",
          "name": "tokenId",
          "type": "uint256"
        }
      ],
      "name": "getApproved",
      "outputs": [
        {
          "internalType": "address",
          "name": "",
          "type": "address"
        }
      ],
      "stateMutability": "view",
      "type": "function"
    },
    {
      "inputs": [
        {
          "internalType": "address",
          "name": "owner",
          "type": "address"
        },
        {
          "internalType": "address",
          "name": "operator",
          "type": "address"
        }
      ],
      "name": "isApprovedForAll",
      "outputs": [
        {
          "internalType": "bool",
          "name": "",
          "type": "bool"
        }
      ],
      "stateMutability": "view",
      "type": "function"
    },
    {
      "inputs": [],
      "name": "isPublicMintEnabled",
      "outputs": [
        {
          "internalType": "bool",
          "name": "",
          "type": "bool"
        }
      ],
      "stateMutability": "view",
      "type": "function"
    },
    {
      "inputs": [],
      "name": "maxPerWallet",
      "outputs": [
        {
          "internalType": "uint256",
          "name": "",
          "type": "uint256"
        }
      ],
      "stateMutability": "view",
      "type": "function"
    },
    {
      "inputs": [],
      "name": "maxSupply",
      "outputs": [
        {
          "internalType": "uint256",
          "name": "",
          "type": "uint256"
        }
      ],
      "stateMutability": "view",
      "type": "function"
    },
    {
      "inputs": [
        {
          "internalType": "uint256",
          "name": "quantity_",
          "type": "uint256"
        }
      ],
      "name": "mint",
      "outputs": [],
      "stateMutability": "payable",
      "type": "function"
    },
    {
      "inputs": [],
      "name": "mintPrice",
      "outputs": [
        {
          "internalType": "uint256",
          "name": "",
          "type": "uint256"
        }
      ],
      "stateMutability": "view",
      "type": "function"
    },
    {
      "inputs": [],
      "name": "name",
      "outputs": [
        {
          "internalType": "string",
          "name": "",
          "type": "string"
        }
      ],
      "stateMutability": "view",
      "type": "function"
    },
    {
      "inputs": [],
      "name": "owner",
      "outputs": [
        {
          "internalType": "address",
          "name": "",
          "type": "address"
        }
      ],
      "stateMutability": "view",
      "type": "function"
    },
    {
      "inputs": [
        {
          "internalType": "uint256",
          "name": "tokenId",
          "type": "uint256"
        }
      ],
      "name": "ownerOf",
      "outputs": [
        {
          "internalType": "address",
          "name": "",
          "type": "address"
        }
      ],
      "stateMutability": "view",
      "type": "function"
    },
    {
      "inputs": [],
      "name": "renounceOwnership",
      "outputs": [],
      "stateMutability": "nonpayable",
      "type": "function"
    },
    {
      "inputs": [
        {
          "internalType": "address",
          "name": "from",
          "type": "address"
        },
        {
          "internalType": "address",
          "name": "to",
          "type": "address"
        },
        {
          "internalType": "uint256",
          "name": "tokenId",
          "type": "uint256"
        }
      ],
      "name": "safeTransferFrom",
      "outputs": [],
      "stateMutability": "nonpayable",
      "type": "function"
    },
    {
      "inputs": [
        {
          "internalType": "address",
          "name": "from",
          "type": "address"
        },
        {
          "internalType": "address",
          "name": "to",
          "type": "address"
        },
        {
          "internalType": "uint256",
          "name": "tokenId",
          "type": "uint256"
        },
        {
          "internalType": "bytes",
          "name": "data",
          "type": "bytes"
        }
      ],
      "name": "safeTransferFrom",
      "outputs": [],
      "stateMutability": "nonpayable",
      "type": "function"
    },
    {
      "inputs": [
        {
          "internalType": "address",
          "name": "operator",
          "type": "address"
        },
        {
          "internalType": "bool",
          "name": "approved",
          "type": "bool"
        }
      ],
      "name": "setApprovalForAll",
      "outputs": [],
      "stateMutability": "nonpayable",
      "type": "function"
    },
    {
      "inputs": [
        {
          "internalType": "string",
          "name": "baseTokenUri_",
          "type": "string"
        }
      ],
      "name": "setBaseTokenUri",
      "outputs": [],
      "stateMutability": "nonpayable",
      "type": "function"
    },
    {
      "inputs": [
        {
          "internalType": "bool",
          "name": "isPublicMintEnabled_",
          "type": "bool"
        }
      ],
      "name": "setIsPublicMintEnabled",
      "outputs": [],
      "stateMutability": "nonpayable",
      "type": "function"
    },
    {
      "inputs": [
        {
          "internalType": "bytes4",
          "name": "interfaceId",
          "type": "bytes4"
        }
      ],
      "name": "supportsInterface",
      "outputs": [
        {
          "internalType": "bool",
          "name": "",
          "type": "bool"
        }
      ],
      "stateMutability": "view",
      "type": "function"
    },
    {
      "inputs": [],
      "name": "symbol",
      "outputs": [
        {
          "internalType": "string",
          "name": "",
          "type": "string"
        }
      ],
      "stateMutability": "view",
      "type": "function"
    },
    {
      "inputs": [
        {
          "internalType": "uint256",
          "name": "tokenId",
          "type": "uint256"
        }
      ],
      "name": "tokenURI",
      "outputs": [
        {
          "internalType": "string",
          "name": "",
          "type": "string"
        }
      ],
      "stateMutability": "view",
      "type": "function"
    },
    {
      "inputs": [
        {
          "internalType": "uint256",
          "name": "tokenId_",
          "type": "uint256"
        }
      ],
      "name": "tokenUri",
      "outputs": [
        {
          "internalType": "string",
          "name": "",
          "type": "string"
        }
      ],
      "stateMutability": "view",
      "type": "function"
    },
    {
      "inputs": [],
      "name": "totalSupply",
      "outputs": [
        {
          "internalType": "uint256",
          "name": "",
          "type": "uint256"
        }
      ],
      "stateMutability": "view",
      "type": "function"
    },
    {
      "inputs": [
        {
          "internalType": "address",
          "name": "from",
          "type": "address"
        },
        {
          "internalType": "address",
          "name": "to",
          "type": "address"
        },
        {
          "internalType": "uint256",
          "name": "tokenId",
          "type": "uint256"
        }
      ],
      "name": "transferFrom",
      "outputs": [],
      "stateMutability": "nonpayable",
      "type": "function"
    },
    {
      "inputs": [
        {
          "internalType": "address",
          "name": "newOwner",
          "type": "address"
        }
      ],
      "name": "transferOwnership",
      "outputs": [],
      "stateMutability": "nonpayable",
      "type": "function"
    },
    {
      "inputs": [
        {
          "internalType": "address",
          "name": "",
          "type": "address"
        }
      ],
      "name": "walletMins",
      "outputs": [
        {
          "internalType": "uint256",
          "name": "",
          "type": "uint256"
        }
      ],
      "stateMutability": "view",
      "type": "function"
    },
    {
      "inputs": [],
      "name": "withdraw",
      "outputs": [],
      "stateMutability": "nonpayable",
      "type": "function"
    },
    {
      "inputs": [],
      "name": "withdrawWallet",
      "outputs": [
        {
          "internalType": "address payable",
          "name": "",
          "type": "address"
        }
      ],
      "stateMutability": "view",
      "type": "function"
    }
  ],
  "bytecode": "0x60806040526040518060400160405280600581526020017f42657a696b0000000000000000000000000000000000000000000000000000008152506040518060400160405280600381526020017f42455a0000000000000000000000000000000000000000000000000000000000815250816000908051906020019062000088929190620001bf565b508060019080519060200190620000a1929190620001bf565b505050620000c4620000b8620000f160201b60201c565b620000f960201b60201c565b66470de4df82000060078190555060006008819055506103e86009819055506003600a81905550620002d4565b600033905090565b6000600660009054906101000a900473ffffffffffffffffffffffffffffffffffffffff16905081600660006101000a81548173ffffffffffffffffffffffffffffffffffffffff021916908373ffffffffffffffffffffffffffffffffffffffff1602179055508173ffffffffffffffffffffffffffffffffffffffff168173ffffffffffffffffffffffffffffffffffffffff167f8be0079c531659141344cd1fd0a4f28419497f9722a3daafe3b4186f6b6457e060405160405180910390a35050565b828054620001cd906200026f565b90600052602060002090601f016020900481019282620001f157600085556200023d565b82601f106200020c57805160ff19168380011785556200023d565b828001600101855582156200023d579182015b828111156200023c5782518255916020019190600101906200021f565b5b5090506200024c919062000250565b5090565b5b808211156200026b57600081600090555060010162000251565b5090565b600060028204905060018216806200028857607f821691505b602082108114156200029f576200029e620002a5565b5b50919050565b7f4e487b7100000000000000000000000000000000000000000000000000000000600052602260045260246000fd5b61383e80620002e46000396000f3fe6080604052600436106101b75760003560e01c806370a08231116100ec578063a22cb4651161008a578063c87b56dd11610064578063c87b56dd146105eb578063d5abeb0114610628578063e985e9c514610653578063f2fde38b14610690576101b7565b8063a22cb4651461055c578063b88d4fde14610585578063bd990aed146105ae576101b7565b80638da5cb5b116100c65780638da5cb5b146104c157806395652cfa146104ec57806395d89b4114610515578063a0712d6814610540576101b7565b806370a0823114610442578063715018a61461047f57806385d178f414610496576101b7565b80632373ac221161015957806342842e0e1161013357806342842e0e14610386578063453c2310146103af5780636352211e146103da5780636817c76c14610417576101b7565b80632373ac221461031d57806323b872dd146103465780633ccfd60b1461036f576101b7565b8063081812fc11610195578063081812fc1461024f578063095ea7b31461028c5780631675f455146102b557806318160ddd146102f2576101b7565b80630116bc2d146101bc57806301ffc9a7146101e757806306fdde0314610224575b600080fd5b3480156101c857600080fd5b506101d16106b9565b6040516101de9190612cde565b60405180910390f35b3480156101f357600080fd5b5061020e600480360381019061020991906126f7565b6106cc565b60405161021b9190612cde565b60405180910390f35b34801561023057600080fd5b506102396107ae565b6040516102469190612cf9565b60405180910390f35b34801561025b57600080fd5b506102766004803603810190610271919061278e565b610840565b6040516102839190612c5c565b60405180910390f35b34801561029857600080fd5b506102b360048036038101906102ae9190612692565b610886565b005b3480156102c157600080fd5b506102dc60048036038101906102d7919061278e565b61099e565b6040516102e99190612cf9565b60405180910390f35b3480156102fe57600080fd5b50610307610a1a565b6040516103149190612f7b565b60405180910390f35b34801561032957600080fd5b50610344600480360381019061033f91906126ce565b610a20565b005b34801561035257600080fd5b5061036d6004803603810190610368919061258c565b610a45565b005b34801561037b57600080fd5b50610384610aa5565b005b34801561039257600080fd5b506103ad60048036038101906103a8919061258c565b610b7e565b005b3480156103bb57600080fd5b506103c4610b9e565b6040516103d19190612f7b565b60405180910390f35b3480156103e657600080fd5b5061040160048036038101906103fc919061278e565b610ba4565b60405161040e9190612c5c565b60405180910390f35b34801561042357600080fd5b5061042c610c2b565b6040516104399190612f7b565b60405180910390f35b34801561044e57600080fd5b5061046960048036038101906104649190612527565b610c31565b6040516104769190612f7b565b60405180910390f35b34801561048b57600080fd5b50610494610ce9565b005b3480156104a257600080fd5b506104ab610cfd565b6040516104b89190612c77565b60405180910390f35b3480156104cd57600080fd5b506104d6610d23565b6040516104e39190612c5c565b60405180910390f35b3480156104f857600080fd5b50610513600480360381019061050e9190612749565b610d4d565b005b34801561052157600080fd5b5061052a610d6b565b6040516105379190612cf9565b60405180910390f35b61055a6004803603810190610555919061278e565b610dfd565b005b34801561056857600080fd5b50610583600480360381019061057e9190612656565b610fd4565b005b34801561059157600080fd5b506105ac60048036038101906105a791906125db565b610fea565b005b3480156105ba57600080fd5b506105d560048036038101906105d09190612527565b61104c565b6040516105e29190612f7b565b60405180910390f35b3480156105f757600080fd5b50610612600480360381019061060d919061278e565b611064565b60405161061f9190612cf9565b60405180910390f35b34801561063457600080fd5b5061063d6110cc565b60405161064a9190612f7b565b60405180910390f35b34801561065f57600080fd5b5061067a60048036038101906106759190612550565b6110d2565b6040516106879190612cde565b60405180910390f35b34801561069c57600080fd5b506106b760048036038101906106b29190612527565b611166565b005b600b60009054906101000a900460ff1681565b60007f80ac58cd000000000000000000000000000000000000000000000000000000007bffffffffffffffffffffffffffffffffffffffffffffffffffffffff1916827bffffffffffffffffffffffffffffffffffffffffffffffffffffffff1916148061079757507f5b5e139f000000000000000000000000000000000000000000000000000000007bffffffffffffffffffffffffffffffffffffffffffffffffffffffff1916827bffffffffffffffffffffffffffffffffffffffffffffffffffffffff1916145b806107a757506107a6826111ea565b5b9050919050565b6060600080546107bd906131fb565b80601f01602080910402602001604051908101604052809291908181526020018280546107e9906131fb565b80156108365780601f1061080b57610100808354040283529160200191610836565b820191906000526020600020905b81548152906001019060200180831161081957829003601f168201915b5050505050905090565b600061084b82611254565b6004600083815260200190815260200160002060009054906101000a900473ffffffffffffffffffffffffffffffffffffffff169050919050565b600061089182610ba4565b90508073ffffffffffffffffffffffffffffffffffffffff168373ffffffffffffffffffffffffffffffffffffffff161415610902576040517f08c379a00000000000000000000000000000000000000000000000000000000081526004016108f990612edb565b60405180910390fd5b8073ffffffffffffffffffffffffffffffffffffffff1661092161129f565b73ffffffffffffffffffffffffffffffffffffffff161480610950575061094f8161094a61129f565b6110d2565b5b61098f576040517f08c379a000000000000000000000000000000000000000000000000000000000815260040161098690612efb565b60405180910390fd5b61099983836112a7565b505050565b60606109a982611360565b6109e8576040517f08c379a00000000000000000000000000000000000000000000000000000000081526004016109df90612f1b565b60405180910390fd5b600c6109f3836113a1565b604051602001610a04929190612c18565b6040516020818303038152906040529050919050565b60085481565b610a286114c5565b80600b60006101000a81548160ff02191690831515021790555050565b610a56610a5061129f565b82611543565b610a95576040517f08c379a0000000000000000000000000000000000000000000000000000000008152600401610a8c90612d3b565b60405180910390fd5b610aa08383836115d8565b505050565b610aad6114c5565b6000600d60009054906101000a900473ffffffffffffffffffffffffffffffffffffffff1673ffffffffffffffffffffffffffffffffffffffff1647604051610af590612c47565b60006040518083038185875af1925050503d8060008114610b32576040519150601f19603f3d011682016040523d82523d6000602084013e610b37565b606091505b5050905080610b7b576040517f08c379a0000000000000000000000000000000000000000000000000000000008152600401610b7290612f5b565b60405180910390fd5b50565b610b9983838360405180602001604052806000815250610fea565b505050565b600a5481565b600080610bb0836118d2565b9050600073ffffffffffffffffffffffffffffffffffffffff168173ffffffffffffffffffffffffffffffffffffffff161415610c22576040517f08c379a0000000000000000000000000000000000000000000000000000000008152600401610c1990612ebb565b60405180910390fd5b80915050919050565b60075481565b60008073ffffffffffffffffffffffffffffffffffffffff168273ffffffffffffffffffffffffffffffffffffffff161415610ca2576040517f08c379a0000000000000000000000000000000000000000000000000000000008152600401610c9990612e5b565b60405180910390fd5b600360008373ffffffffffffffffffffffffffffffffffffffff1673ffffffffffffffffffffffffffffffffffffffff168152602001908152602001600020549050919050565b610cf16114c5565b610cfb600061190f565b565b600d60009054906101000a900473ffffffffffffffffffffffffffffffffffffffff1681565b6000600660009054906101000a900473ffffffffffffffffffffffffffffffffffffffff16905090565b610d556114c5565b8181600c9190610d66929190612369565b505050565b606060018054610d7a906131fb565b80601f0160208091040260200160405190810160405280929190818152602001828054610da6906131fb565b8015610df35780601f10610dc857610100808354040283529160200191610df3565b820191906000526020600020905b815481529060010190602001808311610dd657829003601f168201915b5050505050905090565b600b60009054906101000a900460ff16610e4c576040517f08c379a0000000000000000000000000000000000000000000000000000000008152600401610e4390612f3b565b60405180910390fd5b60075481610e5a91906130a5565b3414610e9b576040517f08c379a0000000000000000000000000000000000000000000000000000000008152600401610e9290612d1b565b60405180910390fd5b60095481600854610eac919061304f565b1115610eed576040517f08c379a0000000000000000000000000000000000000000000000000000000008152600401610ee490612e3b565b60405180910390fd5b600a5481600e60003373ffffffffffffffffffffffffffffffffffffffff1673ffffffffffffffffffffffffffffffffffffffff16815260200190815260200160002054610f3b919061304f565b1115610f7c576040517f08c379a0000000000000000000000000000000000000000000000000000000008152600401610f7390612ddb565b60405180910390fd5b60005b81811015610fd05760006001600854610f98919061304f565b905060086000815480929190610fad9061325e565b9190505550610fbc33826119d5565b508080610fc89061325e565b915050610f7f565b5050565b610fe6610fdf61129f565b83836119f3565b5050565b610ffb610ff561129f565b83611543565b61103a576040517f08c379a000000000000000000000000000000000000000000000000000000000815260040161103190612d3b565b60405180910390fd5b61104684848484611b60565b50505050565b600e6020528060005260406000206000915090505481565b606061106f82611254565b6000611079611bbc565b9050600081511161109957604051806020016040528060008152506110c4565b806110a3846113a1565b6040516020016110b4929190612bf4565b6040516020818303038152906040525b915050919050565b60095481565b6000600560008473ffffffffffffffffffffffffffffffffffffffff1673ffffffffffffffffffffffffffffffffffffffff16815260200190815260200160002060008373ffffffffffffffffffffffffffffffffffffffff1673ffffffffffffffffffffffffffffffffffffffff16815260200190815260200160002060009054906101000a900460ff16905092915050565b61116e6114c5565b600073ffffffffffffffffffffffffffffffffffffffff168173ffffffffffffffffffffffffffffffffffffffff1614156111de576040517f08c379a00000000000000000000000000000000000000000000000000000000081526004016111d590612d7b565b60405180910390fd5b6111e78161190f565b50565b60007f01ffc9a7000000000000000000000000000000000000000000000000000000007bffffffffffffffffffffffffffffffffffffffffffffffffffffffff1916827bffffffffffffffffffffffffffffffffffffffffffffffffffffffff1916149050919050565b61125d81611360565b61129c576040517f08c379a000000000000000000000000000000000000000000000000000000000815260040161129390612ebb565b60405180910390fd5b50565b600033905090565b816004600083815260200190815260200160002060006101000a81548173ffffffffffffffffffffffffffffffffffffffff021916908373ffffffffffffffffffffffffffffffffffffffff160217905550808273ffffffffffffffffffffffffffffffffffffffff1661131a83610ba4565b73ffffffffffffffffffffffffffffffffffffffff167f8c5be1e5ebec7d5bd14f71427d1e84f3dd0314c0f7b2291e5b200ac8c7c3b92560405160405180910390a45050565b60008073ffffffffffffffffffffffffffffffffffffffff16611382836118d2565b73ffffffffffffffffffffffffffffffffffffffff1614159050919050565b6060600060016113b084611bd3565b01905060008167ffffffffffffffff8111156113f5577f4e487b7100000000000000000000000000000000000000000000000000000000600052604160045260246000fd5b6040519080825280601f01601f1916602001820160405280156114275781602001600182028036833780820191505090505b509050600082602001820190505b6001156114ba578080600190039150507f3031323334353637383961626364656600000000000000000000000000000000600a86061a8153600a85816114a4577f4e487b7100000000000000000000000000000000000000000000000000000000600052601260045260246000fd5b04945060008514156114b5576114ba565b611435565b819350505050919050565b6114cd61129f565b73ffffffffffffffffffffffffffffffffffffffff166114eb610d23565b73ffffffffffffffffffffffffffffffffffffffff1614611541576040517f08c379a000000000000000000000000000000000000000000000000000000000815260040161153890612e9b565b60405180910390fd5b565b60008061154f83610ba4565b90508073ffffffffffffffffffffffffffffffffffffffff168473ffffffffffffffffffffffffffffffffffffffff161480611591575061159081856110d2565b5b806115cf57508373ffffffffffffffffffffffffffffffffffffffff166115b784610840565b73ffffffffffffffffffffffffffffffffffffffff16145b91505092915050565b8273ffffffffffffffffffffffffffffffffffffffff166115f882610ba4565b73ffffffffffffffffffffffffffffffffffffffff161461164e576040517f08c379a000000000000000000000000000000000000000000000000000000000815260040161164590612d9b565b60405180910390fd5b600073ffffffffffffffffffffffffffffffffffffffff168273ffffffffffffffffffffffffffffffffffffffff1614156116be576040517f08c379a00000000000000000000000000000000000000000000000000000000081526004016116b590612dfb565b60405180910390fd5b6116cb8383836001611e0a565b8273ffffffffffffffffffffffffffffffffffffffff166116eb82610ba4565b73ffffffffffffffffffffffffffffffffffffffff1614611741576040517f08c379a000000000000000000000000000000000000000000000000000000000815260040161173890612d9b565b60405180910390fd5b6004600082815260200190815260200160002060006101000a81549073ffffffffffffffffffffffffffffffffffffffff02191690556001600360008573ffffffffffffffffffffffffffffffffffffffff1673ffffffffffffffffffffffffffffffffffffffff168152602001908152602001600020600082825403925050819055506001600360008473ffffffffffffffffffffffffffffffffffffffff1673ffffffffffffffffffffffffffffffffffffffff16815260200190815260200160002060008282540192505081905550816002600083815260200190815260200160002060006101000a81548173ffffffffffffffffffffffffffffffffffffffff021916908373ffffffffffffffffffffffffffffffffffffffff160217905550808273ffffffffffffffffffffffffffffffffffffffff168473ffffffffffffffffffffffffffffffffffffffff167fddf252ad1be2c89b69c2b068fc378daa952ba7f163c4a11628f55a4df523b3ef60405160405180910390a46118cd8383836001611f30565b505050565b60006002600083815260200190815260200160002060009054906101000a900473ffffffffffffffffffffffffffffffffffffffff169050919050565b6000600660009054906101000a900473ffffffffffffffffffffffffffffffffffffffff16905081600660006101000a81548173ffffffffffffffffffffffffffffffffffffffff021916908373ffffffffffffffffffffffffffffffffffffffff1602179055508173ffffffffffffffffffffffffffffffffffffffff168173ffffffffffffffffffffffffffffffffffffffff167f8be0079c531659141344cd1fd0a4f28419497f9722a3daafe3b4186f6b6457e060405160405180910390a35050565b6119ef828260405180602001604052806000815250611f36565b5050565b8173ffffffffffffffffffffffffffffffffffffffff168373ffffffffffffffffffffffffffffffffffffffff161415611a62576040517f08c379a0000000000000000000000000000000000000000000000000000000008152600401611a5990612e1b565b60405180910390fd5b80600560008573ffffffffffffffffffffffffffffffffffffffff1673ffffffffffffffffffffffffffffffffffffffff16815260200190815260200160002060008473ffffffffffffffffffffffffffffffffffffffff1673ffffffffffffffffffffffffffffffffffffffff16815260200190815260200160002060006101000a81548160ff0219169083151502179055508173ffffffffffffffffffffffffffffffffffffffff168373ffffffffffffffffffffffffffffffffffffffff167f17307eab39ab6107e8899845ad3d59bd9653f200f220920489ca2b5937696c3183604051611b539190612cde565b60405180910390a3505050565b611b6b8484846115d8565b611b7784848484611f91565b611bb6576040517f08c379a0000000000000000000000000000000000000000000000000000000008152600401611bad90612d5b565b60405180910390fd5b50505050565b606060405180602001604052806000815250905090565b600080600090507a184f03e93ff9f4daa797ed6e38ed64bf6a1f0100000000000000008310611c57577a184f03e93ff9f4daa797ed6e38ed64bf6a1f0100000000000000008381611c4d577f4e487b7100000000000000000000000000000000000000000000000000000000600052601260045260246000fd5b0492506040810190505b6d04ee2d6d415b85acef81000000008310611cba576d04ee2d6d415b85acef81000000008381611cb0577f4e487b7100000000000000000000000000000000000000000000000000000000600052601260045260246000fd5b0492506020810190505b662386f26fc100008310611d0f57662386f26fc100008381611d05577f4e487b7100000000000000000000000000000000000000000000000000000000600052601260045260246000fd5b0492506010810190505b6305f5e1008310611d5e576305f5e1008381611d54577f4e487b7100000000000000000000000000000000000000000000000000000000600052601260045260246000fd5b0492506008810190505b6127108310611da9576127108381611d9f577f4e487b7100000000000000000000000000000000000000000000000000000000600052601260045260246000fd5b0492506004810190505b60648310611df25760648381611de8577f4e487b7100000000000000000000000000000000000000000000000000000000600052601260045260246000fd5b0492506002810190505b600a8310611e01576001810190505b80915050919050565b6001811115611f2a57600073ffffffffffffffffffffffffffffffffffffffff168473ffffffffffffffffffffffffffffffffffffffff1614611e9e5780600360008673ffffffffffffffffffffffffffffffffffffffff1673ffffffffffffffffffffffffffffffffffffffff1681526020019081526020016000206000828254611e9691906130ff565b925050819055505b600073ffffffffffffffffffffffffffffffffffffffff168373ffffffffffffffffffffffffffffffffffffffff1614611f295780600360008573ffffffffffffffffffffffffffffffffffffffff1673ffffffffffffffffffffffffffffffffffffffff1681526020019081526020016000206000828254611f21919061304f565b925050819055505b5b50505050565b50505050565b611f408383612128565b611f4d6000848484611f91565b611f8c576040517f08c379a0000000000000000000000000000000000000000000000000000000008152600401611f8390612d5b565b60405180910390fd5b505050565b6000611fb28473ffffffffffffffffffffffffffffffffffffffff16612346565b1561211b578373ffffffffffffffffffffffffffffffffffffffff1663150b7a02611fdb61129f565b8786866040518563ffffffff1660e01b8152600401611ffd9493929190612c92565b602060405180830381600087803b15801561201757600080fd5b505af192505050801561204857506040513d601f19601f820116820180604052508101906120459190612720565b60015b6120cb573d8060008114612078576040519150601f19603f3d011682016040523d82523d6000602084013e61207d565b606091505b506000815114156120c3576040517f08c379a00000000000000000000000000000000000000000000000000000000081526004016120ba90612d5b565b60405180910390fd5b805181602001fd5b63150b7a0260e01b7bffffffffffffffffffffffffffffffffffffffffffffffffffffffff1916817bffffffffffffffffffffffffffffffffffffffffffffffffffffffff191614915050612120565b600190505b949350505050565b600073ffffffffffffffffffffffffffffffffffffffff168273ffffffffffffffffffffffffffffffffffffffff161415612198576040517f08c379a000000000000000000000000000000000000000000000000000000000815260040161218f90612e7b565b60405180910390fd5b6121a181611360565b156121e1576040517f08c379a00000000000000000000000000000000000000000000000000000000081526004016121d890612dbb565b60405180910390fd5b6121ef600083836001611e0a565b6121f881611360565b15612238576040517f08c379a000000000000000000000000000000000000000000000000000000000815260040161222f90612dbb565b60405180910390fd5b6001600360008473ffffffffffffffffffffffffffffffffffffffff1673ffffffffffffffffffffffffffffffffffffffff16815260200190815260200160002060008282540192505081905550816002600083815260200190815260200160002060006101000a81548173ffffffffffffffffffffffffffffffffffffffff021916908373ffffffffffffffffffffffffffffffffffffffff160217905550808273ffffffffffffffffffffffffffffffffffffffff16600073ffffffffffffffffffffffffffffffffffffffff167fddf252ad1be2c89b69c2b068fc378daa952ba7f163c4a11628f55a4df523b3ef60405160405180910390a4612342600083836001611f30565b5050565b6000808273ffffffffffffffffffffffffffffffffffffffff163b119050919050565b828054612375906131fb565b90600052602060002090601f01602090048101928261239757600085556123de565b82601f106123b057803560ff19168380011785556123de565b828001600101855582156123de579182015b828111156123dd5782358255916020019190600101906123c2565b5b5090506123eb91906123ef565b5090565b5b808211156124085760008160009055506001016123f0565b5090565b600061241f61241a84612fbb565b612f96565b90508281526020810184848401111561243757600080fd5b6124428482856131b9565b509392505050565b600081359050612459816137ac565b92915050565b60008135905061246e816137c3565b92915050565b600081359050612483816137da565b92915050565b600081519050612498816137da565b92915050565b600082601f8301126124af57600080fd5b81356124bf84826020860161240c565b91505092915050565b60008083601f8401126124da57600080fd5b8235905067ffffffffffffffff8111156124f357600080fd5b60208301915083600182028301111561250b57600080fd5b9250929050565b600081359050612521816137f1565b92915050565b60006020828403121561253957600080fd5b60006125478482850161244a565b91505092915050565b6000806040838503121561256357600080fd5b60006125718582860161244a565b92505060206125828582860161244a565b9150509250929050565b6000806000606084860312156125a157600080fd5b60006125af8682870161244a565b93505060206125c08682870161244a565b92505060406125d186828701612512565b9150509250925092565b600080600080608085870312156125f157600080fd5b60006125ff8782880161244a565b94505060206126108782880161244a565b935050604061262187828801612512565b925050606085013567ffffffffffffffff81111561263e57600080fd5b61264a8782880161249e565b91505092959194509250565b6000806040838503121561266957600080fd5b60006126778582860161244a565b92505060206126888582860161245f565b9150509250929050565b600080604083850312156126a557600080fd5b60006126b38582860161244a565b92505060206126c485828601612512565b9150509250929050565b6000602082840312156126e057600080fd5b60006126ee8482850161245f565b91505092915050565b60006020828403121561270957600080fd5b600061271784828501612474565b91505092915050565b60006020828403121561273257600080fd5b600061274084828501612489565b91505092915050565b6000806020838503121561275c57600080fd5b600083013567ffffffffffffffff81111561277657600080fd5b612782858286016124c8565b92509250509250929050565b6000602082840312156127a057600080fd5b60006127ae84828501612512565b91505092915050565b6127c081613145565b82525050565b6127cf81613133565b82525050565b6127de81613157565b82525050565b60006127ef82613001565b6127f98185613017565b93506128098185602086016131c8565b61281281613334565b840191505092915050565b60006128288261300c565b6128328185613033565b93506128428185602086016131c8565b61284b81613334565b840191505092915050565b60006128618261300c565b61286b8185613044565b935061287b8185602086016131c8565b80840191505092915050565b60008154612894816131fb565b61289e8186613044565b945060018216600081146128b957600181146128ca576128fd565b60ff198316865281860193506128fd565b6128d385612fec565b60005b838110156128f5578154818901526001820191506020810190506128d6565b838801955050505b50505092915050565b6000612913601083613033565b915061291e82613345565b602082019050919050565b6000612936602d83613033565b91506129418261336e565b604082019050919050565b6000612959603283613033565b9150612964826133bd565b604082019050919050565b600061297c602683613033565b91506129878261340c565b604082019050919050565b600061299f602583613033565b91506129aa8261345b565b604082019050919050565b60006129c2601c83613033565b91506129cd826134aa565b602082019050919050565b60006129e5601083613033565b91506129f0826134d3565b602082019050919050565b6000612a08602483613033565b9150612a13826134fc565b604082019050919050565b6000612a2b601983613033565b9150612a368261354b565b602082019050919050565b6000612a4e600883613033565b9150612a5982613574565b602082019050919050565b6000612a71602983613033565b9150612a7c8261359d565b604082019050919050565b6000612a94602083613033565b9150612a9f826135ec565b602082019050919050565b6000612ab7600583613044565b9150612ac282613615565b600582019050919050565b6000612ada602083613033565b9150612ae58261363e565b602082019050919050565b6000612afd601883613033565b9150612b0882613667565b602082019050919050565b6000612b20602183613033565b9150612b2b82613690565b604082019050919050565b6000612b43600083613028565b9150612b4e826136df565b600082019050919050565b6000612b66603d83613033565b9150612b71826136e2565b604082019050919050565b6000612b89601583613033565b9150612b9482613731565b602082019050919050565b6000612bac601083613033565b9150612bb78261375a565b602082019050919050565b6000612bcf600f83613033565b9150612bda82613783565b602082019050919050565b612bee816131af565b82525050565b6000612c008285612856565b9150612c0c8284612856565b91508190509392505050565b6000612c248285612887565b9150612c308284612856565b9150612c3b82612aaa565b91508190509392505050565b6000612c5282612b36565b9150819050919050565b6000602082019050612c7160008301846127c6565b92915050565b6000602082019050612c8c60008301846127b7565b92915050565b6000608082019050612ca760008301876127c6565b612cb460208301866127c6565b612cc16040830185612be5565b8181036060830152612cd381846127e4565b905095945050505050565b6000602082019050612cf360008301846127d5565b92915050565b60006020820190508181036000830152612d13818461281d565b905092915050565b60006020820190508181036000830152612d3481612906565b9050919050565b60006020820190508181036000830152612d5481612929565b9050919050565b60006020820190508181036000830152612d748161294c565b9050919050565b60006020820190508181036000830152612d948161296f565b9050919050565b60006020820190508181036000830152612db481612992565b9050919050565b60006020820190508181036000830152612dd4816129b5565b9050919050565b60006020820190508181036000830152612df4816129d8565b9050919050565b60006020820190508181036000830152612e14816129fb565b9050919050565b60006020820190508181036000830152612e3481612a1e565b9050919050565b60006020820190508181036000830152612e5481612a41565b9050919050565b60006020820190508181036000830152612e7481612a64565b9050919050565b60006020820190508181036000830152612e9481612a87565b9050919050565b60006020820190508181036000830152612eb481612acd565b9050919050565b60006020820190508181036000830152612ed481612af0565b9050919050565b60006020820190508181036000830152612ef481612b13565b9050919050565b60006020820190508181036000830152612f1481612b59565b9050919050565b60006020820190508181036000830152612f3481612b7c565b9050919050565b60006020820190508181036000830152612f5481612b9f565b9050919050565b60006020820190508181036000830152612f7481612bc2565b9050919050565b6000602082019050612f906000830184612be5565b92915050565b6000612fa0612fb1565b9050612fac828261322d565b919050565b6000604051905090565b600067ffffffffffffffff821115612fd657612fd5613305565b5b612fdf82613334565b9050602081019050919050565b60008190508160005260206000209050919050565b600081519050919050565b600081519050919050565b600082825260208201905092915050565b600081905092915050565b600082825260208201905092915050565b600081905092915050565b600061305a826131af565b9150613065836131af565b9250827fffffffffffffffffffffffffffffffffffffffffffffffffffffffffffffffff0382111561309a576130996132a7565b5b828201905092915050565b60006130b0826131af565b91506130bb836131af565b9250817fffffffffffffffffffffffffffffffffffffffffffffffffffffffffffffffff04831182151516156130f4576130f36132a7565b5b828202905092915050565b600061310a826131af565b9150613115836131af565b925082821015613128576131276132a7565b5b828203905092915050565b600061313e8261318f565b9050919050565b60006131508261318f565b9050919050565b60008115159050919050565b60007fffffffff0000000000000000000000000000000000000000000000000000000082169050919050565b600073ffffffffffffffffffffffffffffffffffffffff82169050919050565b6000819050919050565b82818337600083830152505050565b60005b838110156131e65780820151818401526020810190506131cb565b838111156131f5576000848401525b50505050565b6000600282049050600182168061321357607f821691505b60208210811415613227576132266132d6565b5b50919050565b61323682613334565b810181811067ffffffffffffffff8211171561325557613254613305565b5b80604052505050565b6000613269826131af565b91507fffffffffffffffffffffffffffffffffffffffffffffffffffffffffffffffff82141561329c5761329b6132a7565b5b600182019050919050565b7f4e487b7100000000000000000000000000000000000000000000000000000000600052601160045260246000fd5b7f4e487b7100000000000000000000000000000000000000000000000000000000600052602260045260246000fd5b7f4e487b7100000000000000000000000000000000000000000000000000000000600052604160045260246000fd5b6000601f19601f8301169050919050565b7f77726f6e67206d696e742076616c756500000000000000000000000000000000600082015250565b7f4552433732313a2063616c6c6572206973206e6f7420746f6b656e206f776e6560008201527f72206f7220617070726f76656400000000000000000000000000000000000000602082015250565b7f4552433732313a207472616e7366657220746f206e6f6e20455243373231526560008201527f63656976657220696d706c656d656e7465720000000000000000000000000000602082015250565b7f4f776e61626c653a206e6577206f776e657220697320746865207a65726f206160008201527f6464726573730000000000000000000000000000000000000000000000000000602082015250565b7f4552433732313a207472616e736665722066726f6d20696e636f72726563742060008201527f6f776e6572000000000000000000000000000000000000000000000000000000602082015250565b7f4552433732313a20746f6b656e20616c7265616479206d696e74656400000000600082015250565b7f6578636564206d61782077616c6c657400000000000000000000000000000000600082015250565b7f4552433732313a207472616e7366657220746f20746865207a65726f2061646460008201527f7265737300000000000000000000000000000000000000000000000000000000602082015250565b7f4552433732313a20617070726f766520746f2063616c6c657200000000000000600082015250565b7f736f6c64206f7574000000000000000000000000000000000000000000000000600082015250565b7f4552433732313a2061646472657373207a65726f206973206e6f74206120766160008201527f6c6964206f776e65720000000000000000000000000000000000000000000000602082015250565b7f4552433732313a206d696e7420746f20746865207a65726f2061646472657373600082015250565b7f2e6a736f6e000000000000000000000000000000000000000000000000000000600082015250565b7f4f776e61626c653a2063616c6c6572206973206e6f7420746865206f776e6572600082015250565b7f4552433732313a20696e76616c696420746f6b656e2049440000000000000000600082015250565b7f4552433732313a20617070726f76616c20746f2063757272656e74206f776e6560008201527f7200000000000000000000000000000000000000000000000000000000000000602082015250565b50565b7f4552433732313a20617070726f76652063616c6c6572206973206e6f7420746f60008201527f6b656e206f776e6572206f7220617070726f76656420666f7220616c6c000000602082015250565b7f546f6b656e20646f6573206e6f74206578697374210000000000000000000000600082015250565b7f6d696e74206e6f7420656e61626c656400000000000000000000000000000000600082015250565b7f7769746864726177206661696c65640000000000000000000000000000000000600082015250565b6137b581613133565b81146137c057600080fd5b50565b6137cc81613157565b81146137d757600080fd5b50565b6137e381613163565b81146137ee57600080fd5b50565b6137fa816131af565b811461380557600080fd5b5056fea26469706673582212202bfba3dc433a2c81e2e3fc7c60612c52fdcf4dc2b7726e3c20a2c2ae4648aee664736f6c63430008040033",
  "linkReferences": {},
  "deployedLinkReferences": {}
}